{
  "_format": "hh-sol-artifact-1",
  "contractName": "DBank",
  "sourceName": "contracts/DBank.sol",
  "abi": [
    {
      "inputs": [
        {
          "internalType": "address",
          "name": "swapRouter",
          "type": "address"
        },
        {
          "internalType": "address",
          "name": "GHOAddress",
          "type": "address"
        }
      ],
      "stateMutability": "nonpayable",
      "type": "constructor"
    },
    {
      "inputs": [],
      "name": "ALLOCATION_SUM_NOT_100",
      "type": "error"
    },
    {
      "inputs": [],
      "name": "NO_INVESTED_AMOUNT",
      "type": "error"
    },
    {
      "inputs": [],
      "name": "TOKENS_AND_WEIGHTS_MISMATCH",
      "type": "error"
    },
    {
      "anonymous": false,
      "inputs": [
        {
          "indexed": false,
          "internalType": "uint256",
          "name": "planId",
          "type": "uint256"
        },
        {
          "indexed": false,
          "internalType": "uint256",
          "name": "amountInvested",
          "type": "uint256"
        },
        {
          "indexed": false,
          "internalType": "address",
          "name": "investorAddress",
          "type": "address"
        },
        {
          "indexed": false,
          "internalType": "address[]",
          "name": "tokens",
          "type": "address[]"
        },
        {
          "indexed": false,
          "internalType": "uint256[]",
          "name": "holdingsBought",
          "type": "uint256[]"
        }
      ],
      "name": "InvestedInPlan",
      "type": "event"
    },
    {
      "anonymous": false,
      "inputs": [
        {
          "indexed": false,
          "internalType": "uint256",
          "name": "planId",
          "type": "uint256"
        },
        {
          "indexed": false,
          "internalType": "string",
          "name": "planName",
          "type": "string"
        },
        {
          "indexed": false,
          "internalType": "string",
          "name": "description",
          "type": "string"
        },
        {
          "indexed": false,
          "internalType": "address[]",
          "name": "tokens",
          "type": "address[]"
        },
        {
          "indexed": false,
          "internalType": "uint256[]",
          "name": "allocations",
          "type": "uint256[]"
        },
        {
          "indexed": false,
          "internalType": "address",
          "name": "creator",
          "type": "address"
        }
      ],
      "name": "PlanCreated",
      "type": "event"
    },
    {
      "anonymous": false,
      "inputs": [
        {
          "indexed": false,
          "internalType": "uint256",
          "name": "planId",
          "type": "uint256"
        },
        {
          "indexed": false,
          "internalType": "uint256",
          "name": "amountOut",
          "type": "uint256"
        },
        {
          "indexed": false,
          "internalType": "address",
          "name": "investorAddress",
          "type": "address"
        },
        {
          "indexed": false,
          "internalType": "address[]",
          "name": "tokens",
          "type": "address[]"
        },
        {
          "indexed": false,
          "internalType": "uint256[]",
          "name": "holdingsSold",
          "type": "uint256[]"
        }
      ],
      "name": "WithdrewPlan",
      "type": "event"
    },
    {
      "inputs": [],
      "name": "_GHOAddress",
      "outputs": [
        {
          "internalType": "address",
          "name": "",
          "type": "address"
        }
      ],
      "stateMutability": "view",
      "type": "function"
    },
    {
      "inputs": [],
      "name": "_admin",
      "outputs": [
        {
          "internalType": "address",
          "name": "",
          "type": "address"
        }
      ],
      "stateMutability": "view",
      "type": "function"
    },
    {
      "inputs": [],
      "name": "_swapRouter",
      "outputs": [
        {
          "internalType": "contract ISwapRouter",
          "name": "",
          "type": "address"
        }
      ],
      "stateMutability": "view",
      "type": "function"
    },
    {
      "inputs": [
        {
          "internalType": "string",
          "name": "_name",
          "type": "string"
        },
        {
          "internalType": "string",
          "name": "_description",
          "type": "string"
        },
        {
          "internalType": "address[]",
          "name": "_tokens",
          "type": "address[]"
        },
        {
          "internalType": "uint256[]",
          "name": "_allocations",
          "type": "uint256[]"
        }
      ],
      "name": "createPlan",
      "outputs": [
        {
          "internalType": "bool",
          "name": "",
          "type": "bool"
        }
      ],
      "stateMutability": "nonpayable",
      "type": "function"
    },
    {
      "inputs": [
        {
          "internalType": "uint256",
          "name": "_planId",
          "type": "uint256"
        }
      ],
      "name": "fetchPlanDetails",
      "outputs": [
        {
          "components": [
            {
              "internalType": "string",
              "name": "name",
              "type": "string"
            },
            {
              "internalType": "string",
              "name": "description",
              "type": "string"
            },
            {
              "internalType": "uint256",
              "name": "planId",
              "type": "uint256"
            },
            {
              "internalType": "address[]",
              "name": "tokens",
              "type": "address[]"
            },
            {
              "internalType": "uint256[]",
              "name": "allocations",
              "type": "uint256[]"
            },
            {
              "internalType": "address",
              "name": "creator",
              "type": "address"
            }
          ],
          "internalType": "struct DBank.InvestmentPlans",
          "name": "",
          "type": "tuple"
        }
      ],
      "stateMutability": "view",
      "type": "function"
    },
    {
      "inputs": [
        {
          "internalType": "uint256",
          "name": "_planId",
          "type": "uint256"
        }
      ],
      "name": "getAllUserInvestmentDetails",
      "outputs": [
        {
          "components": [
            {
              "internalType": "uint256",
              "name": "totalGHOInvested",
              "type": "uint256"
            },
            {
              "internalType": "uint256[]",
              "name": "holdings",
              "type": "uint256[]"
            }
          ],
          "internalType": "struct DBank.UserInvestment",
          "name": "",
          "type": "tuple"
        }
      ],
      "stateMutability": "view",
      "type": "function"
    },
    {
      "inputs": [
        {
          "internalType": "uint256",
          "name": "_planId",
          "type": "uint256"
        },
        {
          "internalType": "uint256",
          "name": "_investValue",
          "type": "uint256"
        },
        {
          "internalType": "uint256",
          "name": "_deadline",
          "type": "uint256"
        },
        {
          "internalType": "uint8",
          "name": "v",
          "type": "uint8"
        },
        {
          "internalType": "bytes32",
          "name": "r",
          "type": "bytes32"
        },
        {
          "internalType": "bytes32",
          "name": "s",
          "type": "bytes32"
        }
      ],
      "name": "invest",
      "outputs": [
        {
          "internalType": "bool",
          "name": "",
          "type": "bool"
        }
      ],
      "stateMutability": "nonpayable",
      "type": "function"
    },
    {
      "inputs": [
        {
          "internalType": "uint256",
          "name": "",
          "type": "uint256"
        }
      ],
      "name": "planDetails",
      "outputs": [
        {
          "internalType": "string",
          "name": "name",
          "type": "string"
        },
        {
          "internalType": "string",
          "name": "description",
          "type": "string"
        },
        {
          "internalType": "uint256",
          "name": "planId",
          "type": "uint256"
        },
        {
          "internalType": "address",
          "name": "creator",
          "type": "address"
        }
      ],
      "stateMutability": "view",
      "type": "function"
    },
    {
      "inputs": [
        {
          "internalType": "uint256",
          "name": "",
          "type": "uint256"
        }
      ],
      "name": "supportedTokens",
      "outputs": [
        {
          "internalType": "address",
          "name": "",
          "type": "address"
        }
      ],
      "stateMutability": "view",
      "type": "function"
    },
    {
      "inputs": [
        {
          "internalType": "uint256",
          "name": "_planId",
          "type": "uint256"
        }
      ],
      "name": "withdraw",
      "outputs": [
        {
          "internalType": "bool",
          "name": "",
          "type": "bool"
        }
      ],
      "stateMutability": "nonpayable",
      "type": "function"
    }
  ],
  "bytecode": "0x608060405260006005553480156200001657600080fd5b50604051620034763803806200347683398181016040528101906200003c919062000170565b81600260006101000a81548173ffffffffffffffffffffffffffffffffffffffff021916908373ffffffffffffffffffffffffffffffffffffffff16021790555080600160006101000a81548173ffffffffffffffffffffffffffffffffffffffff021916908373ffffffffffffffffffffffffffffffffffffffff160217905550336000806101000a81548173ffffffffffffffffffffffffffffffffffffffff021916908373ffffffffffffffffffffffffffffffffffffffff1602179055505050620001b7565b600080fd5b600073ffffffffffffffffffffffffffffffffffffffff82169050919050565b600062000138826200010b565b9050919050565b6200014a816200012b565b81146200015657600080fd5b50565b6000815190506200016a816200013f565b92915050565b600080604083850312156200018a576200018962000106565b5b60006200019a8582860162000159565b9250506020620001ad8582860162000159565b9150509250929050565b6132af80620001c76000396000f3fe608060405234801561001057600080fd5b506004361061009e5760003560e01c80638dba85fd116100665780638dba85fd1461016f578063c62556261461018d578063cf0f87d0146101bd578063d82037a3146101ed578063fe53e1b41461021d5761009e565b806301bc45c9146100a35780630231d7ab146100c1578063206c17bb146100f15780632e1a7d4d1461010f578063740166cd1461013f575b600080fd5b6100ab610250565b6040516100b89190611eec565b60405180910390f35b6100db60048036038101906100d69190611f51565b610274565b6040516100e89190612228565b60405180910390f35b6100f961050b565b60405161010691906122a9565b60405180910390f35b61012960048036038101906101249190611f51565b610531565b60405161013691906122df565b60405180910390f35b610159600480360381019061015491906125e6565b610a43565b60405161016691906122df565b60405180910390f35b610177610c80565b6040516101849190611eec565b60405180910390f35b6101a760048036038101906101a29190611f51565b610ca6565b6040516101b49190611eec565b60405180910390f35b6101d760048036038101906101d2919061272c565b610ce5565b6040516101e491906122df565b60405180910390f35b61020760048036038101906102029190611f51565b611536565b60405161021491906127f6565b60405180910390f35b61023760048036038101906102329190611f51565b611602565b6040516102479493929190612871565b60405180910390f35b60008054906101000a900473ffffffffffffffffffffffffffffffffffffffff1681565b61027c611d30565b600460008381526020019081526020016000206040518060c00160405290816000820180546102aa906128f3565b80601f01602080910402602001604051908101604052809291908181526020018280546102d6906128f3565b80156103235780601f106102f857610100808354040283529160200191610323565b820191906000526020600020905b81548152906001019060200180831161030657829003601f168201915b5050505050815260200160018201805461033c906128f3565b80601f0160208091040260200160405190810160405280929190818152602001828054610368906128f3565b80156103b55780601f1061038a576101008083540402835291602001916103b5565b820191906000526020600020905b81548152906001019060200180831161039857829003601f168201915b50505050508152602001600282015481526020016003820180548060200260200160405190810160405280929190818152602001828054801561044d57602002820191906000526020600020905b8160009054906101000a900473ffffffffffffffffffffffffffffffffffffffff1673ffffffffffffffffffffffffffffffffffffffff1681526020019060010190808311610403575b50505050508152602001600482018054806020026020016040519081016040528092919081815260200182805480156104a557602002820191906000526020600020905b815481526020019060010190808311610491575b505050505081526020016005820160009054906101000a900473ffffffffffffffffffffffffffffffffffffffff1673ffffffffffffffffffffffffffffffffffffffff1673ffffffffffffffffffffffffffffffffffffffff16815250509050919050565b600260009054906101000a900473ffffffffffffffffffffffffffffffffffffffff1681565b600080600360003373ffffffffffffffffffffffffffffffffffffffff1673ffffffffffffffffffffffffffffffffffffffff168152602001908152602001600020600084815260200190815260200160002060000154116105bf576040517fa5cc7a0100000000000000000000000000000000000000000000000000000000815260040160405180910390fd5b6000600460008481526020019081526020016000206040518060c00160405290816000820180546105ef906128f3565b80601f016020809104026020016040519081016040528092919081815260200182805461061b906128f3565b80156106685780601f1061063d57610100808354040283529160200191610668565b820191906000526020600020905b81548152906001019060200180831161064b57829003601f168201915b50505050508152602001600182018054610681906128f3565b80601f01602080910402602001604051908101604052809291908181526020018280546106ad906128f3565b80156106fa5780601f106106cf576101008083540402835291602001916106fa565b820191906000526020600020905b8154815290600101906020018083116106dd57829003601f168201915b50505050508152602001600282015481526020016003820180548060200260200160405190810160405280929190818152602001828054801561079257602002820191906000526020600020905b8160009054906101000a900473ffffffffffffffffffffffffffffffffffffffff1673ffffffffffffffffffffffffffffffffffffffff1681526020019060010190808311610748575b50505050508152602001600482018054806020026020016040519081016040528092919081815260200182805480156107ea57602002820191906000526020600020905b8154815260200190600101908083116107d6575b505050505081526020016005820160009054906101000a900473ffffffffffffffffffffffffffffffffffffffff1673ffffffffffffffffffffffffffffffffffffffff1673ffffffffffffffffffffffffffffffffffffffff168152505090506000816060015190506000600360003373ffffffffffffffffffffffffffffffffffffffff1673ffffffffffffffffffffffffffffffffffffffff1681526020019081526020016000206000868152602001908152602001600020604051806040016040529081600082015481526020016001820180548060200260200160405190810160405280929190818152602001828054801561090a57602002820191906000526020600020905b8154815260200190600101908083116108f6575b50505050508152505090506000816020015190506000805b825181101561098a5761096983828151811061094157610940612924565b5b602002602001015186838151811061095c5761095b612924565b5b6020026020010151611762565b826109749190612982565b91506001816109839190612982565b9050610922565b50600360003373ffffffffffffffffffffffffffffffffffffffff1673ffffffffffffffffffffffffffffffffffffffff16815260200190815260200160002060008881526020019081526020016000206000808201600090556001820160006109f49190611d7c565b50507f5d0515ed6f44c835f7da01941721fae44a9c9c747d319267743fcf2d65c93f098782338786604051610a2d959493929190612a94565b60405180910390a1600195505050505050919050565b60008151835114610a80576040517f323d4b9b00000000000000000000000000000000000000000000000000000000815260040160405180910390fd5b6000805b8351811015610ac857838181518110610aa057610a9f612924565b5b602002602001015182610ab39190612982565b91508080610ac090612af5565b915050610a84565b506127108114610b04576040517f2ea8ea8200000000000000000000000000000000000000000000000000000000815260040160405180910390fd5b6040518060c0016040528087815260200186815260200160055481526020018581526020018481526020013373ffffffffffffffffffffffffffffffffffffffff168152506004600060055481526020019081526020016000206000820151816000019081610b739190612cdf565b506020820151816001019081610b899190612cdf565b50604082015181600201556060820151816003019080519060200190610bb0929190611d9d565b506080820151816004019080519060200190610bcd929190611e27565b5060a08201518160050160006101000a81548173ffffffffffffffffffffffffffffffffffffffff021916908373ffffffffffffffffffffffffffffffffffffffff16021790555090505060056000815480929190610c2b90612af5565b91905055507ff1166d0ba96c17c943ac85f38228c77e881a48ee5507647cc0f3dea4ee1c6e5b6005548787878733604051610c6b96959493929190612db1565b60405180910390a16001915050949350505050565b600160009054906101000a900473ffffffffffffffffffffffffffffffffffffffff1681565b60068181548110610cb657600080fd5b906000526020600020016000915054906101000a900473ffffffffffffffffffffffffffffffffffffffff1681565b6000600160009054906101000a900473ffffffffffffffffffffffffffffffffffffffff1673ffffffffffffffffffffffffffffffffffffffff1663d505accf333089898989896040518863ffffffff1660e01b8152600401610d4e9796959493929190612e4c565b600060405180830381600087803b158015610d6857600080fd5b505af1158015610d7c573d6000803e3d6000fd5b50505050610dae600160009054906101000a900473ffffffffffffffffffffffffffffffffffffffff163330896118f8565b610dfd600160009054906101000a900473ffffffffffffffffffffffffffffffffffffffff16600260009054906101000a900473ffffffffffffffffffffffffffffffffffffffff1688611a50565b6000600460008981526020019081526020016000206040518060c0016040529081600082018054610e2d906128f3565b80601f0160208091040260200160405190810160405280929190818152602001828054610e59906128f3565b8015610ea65780601f10610e7b57610100808354040283529160200191610ea6565b820191906000526020600020905b815481529060010190602001808311610e8957829003601f168201915b50505050508152602001600182018054610ebf906128f3565b80601f0160208091040260200160405190810160405280929190818152602001828054610eeb906128f3565b8015610f385780601f10610f0d57610100808354040283529160200191610f38565b820191906000526020600020905b815481529060010190602001808311610f1b57829003601f168201915b505050505081526020016002820154815260200160038201805480602002602001604051908101604052809291908181526020018280548015610fd057602002820191906000526020600020905b8160009054906101000a900473ffffffffffffffffffffffffffffffffffffffff1673ffffffffffffffffffffffffffffffffffffffff1681526020019060010190808311610f86575b505050505081526020016004820180548060200260200160405190810160405280929190818152602001828054801561102857602002820191906000526020600020905b815481526020019060010190808311611014575b505050505081526020016005820160009054906101000a900473ffffffffffffffffffffffffffffffffffffffff1673ffffffffffffffffffffffffffffffffffffffff1673ffffffffffffffffffffffffffffffffffffffff168152505090506000816060015190506000826080015190506000825167ffffffffffffffff8111156110b8576110b7612304565b5b6040519080825280602002602001820160405280156110e65781602001602082028036833780820191505090505b50905060005b835181101561117557600061111b84838151811061110d5761110c612924565b5b60200260200101518d611ba5565b90506111418186848151811061113457611133612924565b5b6020026020010151611bc8565b83838151811061115457611153612924565b5b6020026020010181815250505060018161116e9190612982565b90506110ec565b506000600360003373ffffffffffffffffffffffffffffffffffffffff1673ffffffffffffffffffffffffffffffffffffffff16815260200190815260200160002060008d815260200190815260200160002060000154036112965789600360003373ffffffffffffffffffffffffffffffffffffffff1673ffffffffffffffffffffffffffffffffffffffff16815260200190815260200160002060008d81526020019081526020016000206000018190555080600360003373ffffffffffffffffffffffffffffffffffffffff1673ffffffffffffffffffffffffffffffffffffffff16815260200190815260200160002060008d81526020019081526020016000206001019080519060200190611290929190611e27565b506114e5565b6000600360003373ffffffffffffffffffffffffffffffffffffffff1673ffffffffffffffffffffffffffffffffffffffff16815260200190815260200160002060008d815260200190815260200160002060010180548060200260200160405190810160405280929190818152602001828054801561133557602002820191906000526020600020905b815481526020019060010190808311611321575b505050505090508a600360003373ffffffffffffffffffffffffffffffffffffffff1673ffffffffffffffffffffffffffffffffffffffff16815260200190815260200160002060008e8152602001908152602001600020600001600082825461139f9190612982565b9250508190555060008c90506000825167ffffffffffffffff8111156113c8576113c7612304565b5b6040519080825280602002602001820160405280156113f65781602001602082028036833780820191505090505b50905060005b83518110156114785784818151811061141857611417612924565b5b602002602001015184828151811061143357611432612924565b5b60200260200101516114459190612982565b82828151811061145857611457612924565b5b6020026020010181815250506001816114719190612982565b90506113fc565b5080600360003373ffffffffffffffffffffffffffffffffffffffff1673ffffffffffffffffffffffffffffffffffffffff168152602001908152602001600020600084815260200190815260200160002060010190805190602001906114e0929190611e27565b505050505b7f860c31fc7dffedd9950b4abec1b0a27e9c05012015757691b794489e1a33a89b8b8b33868560405161151c959493929190612a94565b60405180910390a160019450505050509695505050505050565b61153e611e74565b600360003373ffffffffffffffffffffffffffffffffffffffff1673ffffffffffffffffffffffffffffffffffffffff168152602001908152602001600020600083815260200190815260200160002060405180604001604052908160008201548152602001600182018054806020026020016040519081016040528092919081815260200182805480156115f257602002820191906000526020600020905b8154815260200190600101908083116115de575b5050505050815250509050919050565b6004602052806000526040600020600091509050806000018054611625906128f3565b80601f0160208091040260200160405190810160405280929190818152602001828054611651906128f3565b801561169e5780601f106116735761010080835404028352916020019161169e565b820191906000526020600020905b81548152906001019060200180831161168157829003601f168201915b5050505050908060010180546116b3906128f3565b80601f01602080910402602001604051908101604052809291908181526020018280546116df906128f3565b801561172c5780601f106117015761010080835404028352916020019161172c565b820191906000526020600020905b81548152906001019060200180831161170f57829003601f168201915b5050505050908060020154908060050160009054906101000a900473ffffffffffffffffffffffffffffffffffffffff16905084565b600061179182600260009054906101000a900473ffffffffffffffffffffffffffffffffffffffff1685611a50565b60006040518061010001604052808473ffffffffffffffffffffffffffffffffffffffff168152602001600160009054906101000a900473ffffffffffffffffffffffffffffffffffffffff1673ffffffffffffffffffffffffffffffffffffffff168152602001606462ffffff1681526020013373ffffffffffffffffffffffffffffffffffffffff16815260200142815260200185815260200160008152602001600073ffffffffffffffffffffffffffffffffffffffff168152509050600260009054906101000a900473ffffffffffffffffffffffffffffffffffffffff1673ffffffffffffffffffffffffffffffffffffffff1663414bf389826040518263ffffffff1660e01b81526004016118ac9190612f8a565b6020604051808303816000875af11580156118cb573d6000803e3d6000fd5b505050506040513d601f19601f820116820180604052508101906118ef9190612fbb565b91505092915050565b6000808573ffffffffffffffffffffffffffffffffffffffff166323b872dd60e01b86868660405160240161192f93929190612fe8565b604051602081830303815290604052907bffffffffffffffffffffffffffffffffffffffffffffffffffffffff19166020820180517bffffffffffffffffffffffffffffffffffffffffffffffffffffffff83818316178352505050506040516119999190613066565b6000604051808303816000865af19150503d80600081146119d6576040519150601f19603f3d011682016040523d82523d6000602084013e6119db565b606091505b5091509150818015611a095750600081511480611a08575080806020019051810190611a0791906130a9565b5b5b611a48576040517f08c379a0000000000000000000000000000000000000000000000000000000008152600401611a3f90613122565b60405180910390fd5b505050505050565b6000808473ffffffffffffffffffffffffffffffffffffffff1663095ea7b360e01b8585604051602401611a85929190613142565b604051602081830303815290604052907bffffffffffffffffffffffffffffffffffffffffffffffffffffffff19166020820180517bffffffffffffffffffffffffffffffffffffffffffffffffffffffff8381831617835250505050604051611aef9190613066565b6000604051808303816000865af19150503d8060008114611b2c576040519150601f19603f3d011682016040523d82523d6000602084013e611b31565b606091505b5091509150818015611b5f5750600081511480611b5e575080806020019051810190611b5d91906130a9565b5b5b611b9e576040517f08c379a0000000000000000000000000000000000000000000000000000000008152600401611b95906131b7565b60405180910390fd5b5050505050565b60008261271083611bb69190613206565b611bc09190613237565b905092915050565b600080604051806101000160405280600160009054906101000a900473ffffffffffffffffffffffffffffffffffffffff1673ffffffffffffffffffffffffffffffffffffffff1681526020018473ffffffffffffffffffffffffffffffffffffffff168152602001606462ffffff1681526020013073ffffffffffffffffffffffffffffffffffffffff16815260200142815260200185815260200160008152602001600073ffffffffffffffffffffffffffffffffffffffff168152509050600260009054906101000a900473ffffffffffffffffffffffffffffffffffffffff1673ffffffffffffffffffffffffffffffffffffffff1663414bf389826040518263ffffffff1660e01b8152600401611ce49190612f8a565b6020604051808303816000875af1158015611d03573d6000803e3d6000fd5b505050506040513d601f19601f82011682018060405250810190611d279190612fbb565b91505092915050565b6040518060c001604052806060815260200160608152602001600081526020016060815260200160608152602001600073ffffffffffffffffffffffffffffffffffffffff1681525090565b5080546000825590600052602060002090810190611d9a9190611e8e565b50565b828054828255906000526020600020908101928215611e16579160200282015b82811115611e155782518260006101000a81548173ffffffffffffffffffffffffffffffffffffffff021916908373ffffffffffffffffffffffffffffffffffffffff16021790555091602001919060010190611dbd565b5b509050611e239190611e8e565b5090565b828054828255906000526020600020908101928215611e63579160200282015b82811115611e62578251825591602001919060010190611e47565b5b509050611e709190611e8e565b5090565b604051806040016040528060008152602001606081525090565b5b80821115611ea7576000816000905550600101611e8f565b5090565b600073ffffffffffffffffffffffffffffffffffffffff82169050919050565b6000611ed682611eab565b9050919050565b611ee681611ecb565b82525050565b6000602082019050611f016000830184611edd565b92915050565b6000604051905090565b600080fd5b600080fd5b6000819050919050565b611f2e81611f1b565b8114611f3957600080fd5b50565b600081359050611f4b81611f25565b92915050565b600060208284031215611f6757611f66611f11565b5b6000611f7584828501611f3c565b91505092915050565b600081519050919050565b600082825260208201905092915050565b60005b83811015611fb8578082015181840152602081019050611f9d565b60008484015250505050565b6000601f19601f8301169050919050565b6000611fe082611f7e565b611fea8185611f89565b9350611ffa818560208601611f9a565b61200381611fc4565b840191505092915050565b61201781611f1b565b82525050565b600081519050919050565b600082825260208201905092915050565b6000819050602082019050919050565b61205281611ecb565b82525050565b60006120648383612049565b60208301905092915050565b6000602082019050919050565b60006120888261201d565b6120928185612028565b935061209d83612039565b8060005b838110156120ce5781516120b58882612058565b97506120c083612070565b9250506001810190506120a1565b5085935050505092915050565b600081519050919050565b600082825260208201905092915050565b6000819050602082019050919050565b6000612113838361200e565b60208301905092915050565b6000602082019050919050565b6000612137826120db565b61214181856120e6565b935061214c836120f7565b8060005b8381101561217d5781516121648882612107565b975061216f8361211f565b925050600181019050612150565b5085935050505092915050565b600060c08301600083015184820360008601526121a78282611fd5565b915050602083015184820360208601526121c18282611fd5565b91505060408301516121d6604086018261200e565b50606083015184820360608601526121ee828261207d565b91505060808301518482036080860152612208828261212c565b91505060a083015161221d60a0860182612049565b508091505092915050565b60006020820190508181036000830152612242818461218a565b905092915050565b6000819050919050565b600061226f61226a61226584611eab565b61224a565b611eab565b9050919050565b600061228182612254565b9050919050565b600061229382612276565b9050919050565b6122a381612288565b82525050565b60006020820190506122be600083018461229a565b92915050565b60008115159050919050565b6122d9816122c4565b82525050565b60006020820190506122f460008301846122d0565b92915050565b600080fd5b600080fd5b7f4e487b7100000000000000000000000000000000000000000000000000000000600052604160045260246000fd5b61233c82611fc4565b810181811067ffffffffffffffff8211171561235b5761235a612304565b5b80604052505050565b600061236e611f07565b905061237a8282612333565b919050565b600067ffffffffffffffff82111561239a57612399612304565b5b6123a382611fc4565b9050602081019050919050565b82818337600083830152505050565b60006123d26123cd8461237f565b612364565b9050828152602081018484840111156123ee576123ed6122ff565b5b6123f98482856123b0565b509392505050565b600082601f830112612416576124156122fa565b5b81356124268482602086016123bf565b91505092915050565b600067ffffffffffffffff82111561244a57612449612304565b5b602082029050602081019050919050565b600080fd5b61246981611ecb565b811461247457600080fd5b50565b60008135905061248681612460565b92915050565b600061249f61249a8461242f565b612364565b905080838252602082019050602084028301858111156124c2576124c161245b565b5b835b818110156124eb57806124d78882612477565b8452602084019350506020810190506124c4565b5050509392505050565b600082601f83011261250a576125096122fa565b5b813561251a84826020860161248c565b91505092915050565b600067ffffffffffffffff82111561253e5761253d612304565b5b602082029050602081019050919050565b600061256261255d84612523565b612364565b905080838252602082019050602084028301858111156125855761258461245b565b5b835b818110156125ae578061259a8882611f3c565b845260208401935050602081019050612587565b5050509392505050565b600082601f8301126125cd576125cc6122fa565b5b81356125dd84826020860161254f565b91505092915050565b60008060008060808587031215612600576125ff611f11565b5b600085013567ffffffffffffffff81111561261e5761261d611f16565b5b61262a87828801612401565b945050602085013567ffffffffffffffff81111561264b5761264a611f16565b5b61265787828801612401565b935050604085013567ffffffffffffffff81111561267857612677611f16565b5b612684878288016124f5565b925050606085013567ffffffffffffffff8111156126a5576126a4611f16565b5b6126b1878288016125b8565b91505092959194509250565b600060ff82169050919050565b6126d3816126bd565b81146126de57600080fd5b50565b6000813590506126f0816126ca565b92915050565b6000819050919050565b612709816126f6565b811461271457600080fd5b50565b60008135905061272681612700565b92915050565b60008060008060008060c0878903121561274957612748611f11565b5b600061275789828a01611f3c565b965050602061276889828a01611f3c565b955050604061277989828a01611f3c565b945050606061278a89828a016126e1565b935050608061279b89828a01612717565b92505060a06127ac89828a01612717565b9150509295509295509295565b60006040830160008301516127d1600086018261200e565b50602083015184820360208601526127e9828261212c565b9150508091505092915050565b6000602082019050818103600083015261281081846127b9565b905092915050565b600082825260208201905092915050565b600061283482611f7e565b61283e8185612818565b935061284e818560208601611f9a565b61285781611fc4565b840191505092915050565b61286b81611f1b565b82525050565b6000608082019050818103600083015261288b8187612829565b9050818103602083015261289f8186612829565b90506128ae6040830185612862565b6128bb6060830184611edd565b95945050505050565b7f4e487b7100000000000000000000000000000000000000000000000000000000600052602260045260246000fd5b6000600282049050600182168061290b57607f821691505b60208210810361291e5761291d6128c4565b5b50919050565b7f4e487b7100000000000000000000000000000000000000000000000000000000600052603260045260246000fd5b7f4e487b7100000000000000000000000000000000000000000000000000000000600052601160045260246000fd5b600061298d82611f1b565b915061299883611f1b565b92508282019050808211156129b0576129af612953565b5b92915050565b600082825260208201905092915050565b60006129d28261201d565b6129dc81856129b6565b93506129e783612039565b8060005b83811015612a185781516129ff8882612058565b9750612a0a83612070565b9250506001810190506129eb565b5085935050505092915050565b600082825260208201905092915050565b6000612a41826120db565b612a4b8185612a25565b9350612a56836120f7565b8060005b83811015612a87578151612a6e8882612107565b9750612a798361211f565b925050600181019050612a5a565b5085935050505092915050565b600060a082019050612aa96000830188612862565b612ab66020830187612862565b612ac36040830186611edd565b8181036060830152612ad581856129c7565b90508181036080830152612ae98184612a36565b90509695505050505050565b6000612b0082611f1b565b91507fffffffffffffffffffffffffffffffffffffffffffffffffffffffffffffffff8203612b3257612b31612953565b5b600182019050919050565b60008190508160005260206000209050919050565b60006020601f8301049050919050565b600082821b905092915050565b600060088302612b9f7fffffffffffffffffffffffffffffffffffffffffffffffffffffffffffffffff82612b62565b612ba98683612b62565b95508019841693508086168417925050509392505050565b6000612bdc612bd7612bd284611f1b565b61224a565b611f1b565b9050919050565b6000819050919050565b612bf683612bc1565b612c0a612c0282612be3565b848454612b6f565b825550505050565b600090565b612c1f612c12565b612c2a818484612bed565b505050565b5b81811015612c4e57612c43600082612c17565b600181019050612c30565b5050565b601f821115612c9357612c6481612b3d565b612c6d84612b52565b81016020851015612c7c578190505b612c90612c8885612b52565b830182612c2f565b50505b505050565b600082821c905092915050565b6000612cb660001984600802612c98565b1980831691505092915050565b6000612ccf8383612ca5565b9150826002028217905092915050565b612ce882611f7e565b67ffffffffffffffff811115612d0157612d00612304565b5b612d0b82546128f3565b612d16828285612c52565b600060209050601f831160018114612d495760008415612d37578287015190505b612d418582612cc3565b865550612da9565b601f198416612d5786612b3d565b60005b82811015612d7f57848901518255600182019150602085019450602081019050612d5a565b86831015612d9c5784890151612d98601f891682612ca5565b8355505b6001600288020188555050505b505050505050565b600060c082019050612dc66000830189612862565b8181036020830152612dd88188612829565b90508181036040830152612dec8187612829565b90508181036060830152612e0081866129c7565b90508181036080830152612e148185612a36565b9050612e2360a0830184611edd565b979650505050505050565b612e37816126bd565b82525050565b612e46816126f6565b82525050565b600060e082019050612e61600083018a611edd565b612e6e6020830189611edd565b612e7b6040830188612862565b612e886060830187612862565b612e956080830186612e2e565b612ea260a0830185612e3d565b612eaf60c0830184612e3d565b98975050505050505050565b600062ffffff82169050919050565b612ed381612ebb565b82525050565b612ee281611eab565b82525050565b61010082016000820151612eff6000850182612049565b506020820151612f126020850182612049565b506040820151612f256040850182612eca565b506060820151612f386060850182612049565b506080820151612f4b608085018261200e565b5060a0820151612f5e60a085018261200e565b5060c0820151612f7160c085018261200e565b5060e0820151612f8460e0850182612ed9565b50505050565b600061010082019050612fa06000830184612ee8565b92915050565b600081519050612fb581611f25565b92915050565b600060208284031215612fd157612fd0611f11565b5b6000612fdf84828501612fa6565b91505092915050565b6000606082019050612ffd6000830186611edd565b61300a6020830185611edd565b6130176040830184612862565b949350505050565b600081519050919050565b600081905092915050565b60006130408261301f565b61304a818561302a565b935061305a818560208601611f9a565b80840191505092915050565b60006130728284613035565b915081905092915050565b613086816122c4565b811461309157600080fd5b50565b6000815190506130a38161307d565b92915050565b6000602082840312156130bf576130be611f11565b5b60006130cd84828501613094565b91505092915050565b7f5354460000000000000000000000000000000000000000000000000000000000600082015250565b600061310c600383612818565b9150613117826130d6565b602082019050919050565b6000602082019050818103600083015261313b816130ff565b9050919050565b60006040820190506131576000830185611edd565b6131646020830184612862565b9392505050565b7f5341000000000000000000000000000000000000000000000000000000000000600082015250565b60006131a1600283612818565b91506131ac8261316b565b602082019050919050565b600060208201905081810360008301526131d081613194565b9050919050565b7f4e487b7100000000000000000000000000000000000000000000000000000000600052601260045260246000fd5b600061321182611f1b565b915061321c83611f1b565b92508261322c5761322b6131d7565b5b828204905092915050565b600061324282611f1b565b915061324d83611f1b565b925082820261325b81611f1b565b9150828204841483151761327257613271612953565b5b509291505056fea2646970667358221220ef16d79dedf8710f166681916e4d722a713470b14c9ef6b21d714e2a86810f2964736f6c63430008140033",
  "linkReferences": {},
  "deployedLinkReferences": {}
}